:020000040800F2
:100000000808002099010008D1290008C929000822
:10001000CD29000845080008B52A000800000000A6
:10002000000000000000000000000000D9290008C6
:10003000490C000800000000D5290008DD2900084F
:10004000B3010008B3010008B3010008B3010008C0
:10005000B3010008B3010008B3010008B3010008B0
:10006000B3010008B3010008B30100083D0C00080B
:10007000B3010008B3010008B3010008B301000890
:10008000B3010008B3010008B3010008B301000880
:10009000B3010008B3010008B3010008B301000870
:1000A000B3010008B3010008B3010008B301000860
:1000B000B3010008B3010008B3010008B301000850
:1000C000B3010008B3010008B3010008B301000840
:1000D000B3010008B3010008A92A0008B301000811
:1000E0004D0C0008B3010008B301000800F002F84D
:1000F00000F042F80AA090E8000C82448344AAF180
:100100000107DA4501D100F037F8AFF2090EBAE87D
:100110000F0013F0010F18BFFB1A43F0010318473B
:10012000542F0000742F0000103A24BF78C878C103
:10013000FAD8520724BF30C830C144BF04680C60ED
:10014000704700000023002400250026103A28BF35
:1001500078C1FBD8520728BF30C148BF0B60704739
:10016000642900F0BD80732900F06D820020704783
:100170001FB51FBD10B510BD00F069FA1146FFF79D
:10018000F7FF02F099FC00F087FA03B4FFF7F2FFE3
:1001900003BC00F08FFA0000094880470948004777
:1001A000FEE7FEE7FEE7FEE7FEE7FEE7FEE7FEE727
:1001B000FEE7FEE704480549054A064B7047000084
:1001C000E1290008ED0000080802002008080020CE
:1001D00008040020080400200FB41CB5074B06AA31
:1001E0007B4469460090059800F0FBF900206946C1
:1001F00000F00AFA1CBC5DF814FB000025040000A6
:100200000FB41CB50C0007AA009007D04142A142D0
:1002100002D32044401E01E04FF0FF30074B7B44E7
:1002200069460190069800F0DCF90020002C01D00E
:10023000009908701CBC5DF814FB0000F10300007D
:1002400070B5044685690068C10601D5302600E016
:100250002026C00707D070BDD4E901213046904761
:10026000206A401C20626D1EF6D570BD70B5044634
:1002700085690078C00707D170BDD4E9012120202D
:100280009047206A401C20626D1EF6D570BD70B587
:100290000C460546012A05D02878800600D5EA6973
:1002A000002302E0012305E05B1C934202D2E05CE4
:1002B0000028F9D1A869E618C01AA861286A18446C
:1002C00028622846FFF7BCFF04E0D5E9012114F8B5
:1002D000010B9047B442F8D32846FFF7C7FF70BD23
:1002E0002DE9F0410646002410687529314616A50F
:1002F00010D0AFF30080002802DA404213A507E0D7
:1003000031688A0701D512A502E0490704D511A575
:10031000012401E0AFF3008000210A2206F1240746
:1003200009E0B0FBF2FCB0FBF2F302FB1C00303042
:1003300078541846491C0028F3D123462A463046F3
:10034000BDE8F04100F0EFB8000000002D00000013
:100350002B000000200000002DE9F0474FF0000ABC
:1003600089460446C0F820A02046E1688847002856
:1003700076D0252806D0D4E901219047206A401C78
:100380002062F1E7E168204600258847C4F81CA0F8
:1003900006460027C4F818A02A2E09D0304602F0DD
:1003A00037FD38B304EB8708303EC8F8186019E011
:1003B00059F8041B204604EB87029161E1688847E5
:1003C000012F064618D1E069002820DA25F0200523
:1003D0001DE0D8F8180000EB800006EB4000303834
:1003E000C8F818002046E1688847064602F010FD6C
:1003F0000028EED1012F0AD02E2E08D12046E16828
:1004000088477F1C0646022F45F02005C4DBA06903
:10041000002803DA404245F00105A061E80701D059
:1004200025F01005B6B1A6F14100192802D82036F2
:1004300045F400654A463146204625604D46FFF7A3
:100440008FFE58B1012806D0ED1D25F0070000F100
:10045000080989E704E005F1040985E730468AE7E1
:10046000206ABDE8F08710B5431E13F8014F002C39
:10047000FBD105E011F8014B002C03F8014B03D030
:10048000521EF7D20021197010BD40EA010310B5C9
:100490009B070FD1042A0DD310C808C9121F9C4214
:1004A000F8D020BA19BA884201D9012010BD4FF006
:1004B000FF3010BD1AB1D30703D0521C07E0002053
:1004C00010BD10F8013B11F8014B1B1B07D110F8B0
:1004D000013B11F8014B1B1B01D1921EF1D11846B3
:1004E00010BD10B5431C02E010F8011B71B181076B
:1004F000FAD14FF0013202C88C1A8C4314EAC211AF
:10050000F9D0C01A0A0603D0C01E10BDC01A10BD13
:100510000A0401D0801E10BD0902FCD0401E10BD8F
:100520007047704770472DE9F0470D46994692464F
:10053000044600F124080168880604D5E06921F02A
:100540001001216000E00120A84201DD471B00E00E
:100550000027A1697A1902EB0900081AA061207826
:10056000C00602D42046FFF76BFE002608E0D4E95F
:1005700001211AF806009047206A401C761C206270
:100580004E45F4DB2078C0060AD52046FFF758FE1A
:1005900006E0D4E9012130209047206A401C206207
:1005A000381EA7F10107F4DC07E0D4E9012118F8AF
:1005B00005009047206A401C2062281EA5F1010515
:1005C000F3DC2046FFF752FE2078000602D5022019
:1005D000BDE8F0870120FBE701694A1C0261087849
:1005E000704700B58FB0CDE9013100210591054973
:1005F0007944CDE9031011466846FFF7ADFE0FB010
:1006000000BD0000E5FFFFFF0A6802F8010B0A6069
:100610007047D1E900239A4202D2531C0B6010703C
:10062000704710B5436913B1AFF3008001E0FFF7E5
:100630002EFE012010BD127800F124010A70002264
:100640004A700122EDE711684FF0FF32E9E7754685
:1006500000F02CF8AE4605006946534620F007002E
:10066000854618B020B5FFF7A5FDBDE820404FF046
:1006700000064FF000074FF000084FF0000BAC46AB
:10068000ACE8C009ACE8C009ACE8C009ACE8C009F6
:1006900021F007018D46704710B50446AFF3008086
:1006A0002046BDE81040FFF770BD000000487047CD
:1006B0002000002001491820ABBEFEE72600020002
:1006C00070470000B0B5044600688168C90709D0CA
:1006D000816821F00101816001F04EF9216889688B
:1006E000C90701D10020B0BD054602E08068C007FF
:1006F000F8D001F041F9411B20680329F6D3816845
:10070000C907F3D0A06A40F01000A062E06A40F090
:100710000100E0620120B0BD0146406A826A12F029
:10072000500F03D0006A026B084610470168826AC6
:1007300042F400728262896801F46021B1F5602F91
:1007400001D1017B11B100F0DFBB00BF816A21F450
:1007500080718162816AC90448BF00F0D5BB816A9B
:1007600041F00101816200F0CFBB0000406A816A64
:1007700041F040018162C16A41F00401C16200F0B0
:100780000BBC0000406A00F005BC0000B0B582B0B0
:1007900004460020019021688A68D2074FD18868FA
:1007A00040F00100886040F20800C2F200000068DA
:1007B0004DF68361C4F21B31A0FB0101880C01904E
:1007C0000198A0B1019801380190019878B1019881
:1007D00001380190019850B10198013801900198B9
:1007E00028B101980138019001980028EAD101F060
:1007F000C3F821688968C9071CD1054603E000BF1A
:100800008068C0071AD101F0B7F8411B206803299E
:10081000F6D38168C907F3D1A06A40F01000A06246
:10082000E06A40F00100E062002084F8240001202A
:1008300002B0B0BD002002B0B0BD00BF002002B0C9
:10084000B0BD0000FEE700002DE9F04784B080460F
:100850004FF04340C8E9000088794FF47A750C46A0
:10086000002808BF4FF4FA6501F086F8A16849B185
:10087000401AA84206D2D4E90310C8E9000104B026
:10088000BDE8F08701F078F8421C2068A188A260DA
:10089000012201F06BF8A088E17900901120CDE9E8
:1008A0000101032120680391694600F04FFF206891
:1008B000A1880022002501F059F8122000F024FF41
:1008C0002068A188012201F051F8A1882068E2790E
:1008D000E946CDE900154946CDE9022500F036FF8D
:1008E00042F21076EFF3108072B600BF2068A18844
:1008F00001F036F801280BD1B54205F10105F5D319
:1009000062B64FF04340C4E9030004B0BDE8F0878D
:10091000002542F2107600BF2068A18801F020F87F
:1009200001280BD0B54205F10105F5D362B64FF0B1
:100930004340C4E9030004B0BDE8F087002542F25B
:10094000107600BF2068A18801F00AF8012807D1BD
:10095000B54205F10105F5D362B604B0BDE8F087F4
:100960004FF6FF774FF0000A8DF804A0CDF800A0F5
:1009700006E000BF0AF1010ABAF1050F00F0048198
:10098000002200BF2068A188164600F0E9FF012878
:1009900003D0BE4206F10102F4D100222068A188F2
:1009A000154600F0DDFF012803D1BD4205F101022B
:1009B000F4D1B54205D919F80A0040F0800009F8D1
:1009C0000A0000222068A188164600F0C9FF01280D
:1009D00003D0BE4206F10102F4D100222068A188B2
:1009E000154600F0BDFF012803D1BD4205F101020B
:1009F000F4D1B54205D919F80A0040F0400009F8D1
:100A00000A0000222068A188164600F0A9FF0128EC
:100A100003D0BE4206F10102F4D100222068A18871
:100A2000154600F09DFF012803D1BD4205F10102EA
:100A3000F4D1B54205D919F80A0040F0200009F8B0
:100A40000A0000222068A188164600F089FF0128CC
:100A500003D0BE4206F10102F4D100222068A18831
:100A6000154600F07DFF012803D1BD4205F10102CA
:100A7000F4D1B54205D919F80A0040F0100009F880
:100A80000A0000222068A188164600F069FF0128AC
:100A900003D0BE4206F10102F4D100222068A188F1
:100AA000154600F05DFF012803D1BD4205F10102AA
:100AB000F4D1B54205D919F80A0040F0080009F848
:100AC0000A0000222068A188164600F049FF01288C
:100AD00003D0BE4206F10102F4D100222068A188B1
:100AE000154600F03DFF012803D1BD4205F101028A
:100AF000F4D1B54205D919F80A0040F0040009F80C
:100B00000A0000222068A188164600F029FF01286B
:100B100003D0BE4206F10102F4D100222068A18870
:100B2000154600F01DFF012803D1BD4205F1010269
:100B3000F4D1B54205D919F80A0040F0020009F8CD
:100B40000A0000222068A188164600F009FF01284B
:100B500003D0BE4206F10102F4D100222068A18830
:100B6000154600F0FDFE012803D1BD4205F101024A
:100B7000F4D1B5427FF6FEAE19F80A0040F001004C
:100B800009F80A00F6E600BF62B69DF800009DF87D
:100B900001109DF802709DF803500A183A442A4447
:100BA0009DF80430D2B29A4220D1A2794FFA87F947
:100BB00032B3012A1AD141EA002002F04DF94CF675
:100BC000CD41C3F6CC5102F073F90646B9F1000FDE
:100BD000C8F800001ED445EA072002F03DF94CF6A3
:100BE000CD41C3F6CC5102F063F91FE04FF0434012
:100BF0004FF04346C4E9030604B0BDE8F08700BFE8
:100C000002F042F90646C8F800005FFA89F002F0E7
:100C10003BF90BE009F07F0045EA002002F01CF9E7
:100C20004CF6CD41CBF6CC5102F042F9C8F80400A5
:100C3000C4E9030604B0BDE8F087000040F2F80004
:100C4000C2F2000000F008BC704700004FF40050F2
:100C500000F070BDEFF3108072B600BFFEE7000039
:100C600070B582B004460020019094F82400012859
:100C700004D10225284602B070BD00BF012084F8CF
:100C800024002046FFF71EFD054600286CD1A06A0F
:100C900041F2021188430230A06240F20800C2F221
:100CA00000000668022000F021FFB6FBF0F04000D3
:100CB00001900198A8B100BF0198013801900198F6
:100CC00078B1019801380190019850B1019801382C
:100CD0000190019828B101980138019001980028ED
:100CE000EAD12046FFF752FD2068816841F00801F3
:100CF000816000F041FE21688A6812070ED488687E
:100D000040F00400886000F037FE216889684907D8
:100D100014D401206FF0030122E000BF064602E078
:100D200088680007EBD500F027FE801B21680B28A0
:100D3000F6D388680007F3D50EE000BF064602E050
:100D400080684007E5D500F017FE811B20680B295D
:100D5000F6D381684907F3D5012510206FF0120101
:100D6000A26A11400843A062002084F824002846AB
:100D700002B070BD10B581B00022009290F824201E
:100D8000012A03D10221084601B010BD4B6801229F
:100D9000062B80F8242015D8026803EB8303A3F107
:100DA000050E1F23D2F834C003FA0EF40B682CEAA8
:100DB000040C03FA0EF444EA0C045463092B17D90B
:100DC00037E000BF02680C2B20D803EB8303A3F1AC
:100DD00023041F23D2F830C003FA04FE0B682CEA68
:100DE0000E0C03FA04F444EA0C041463092B20D813
:100DF000D2F810C003EB4303072489689C402CEA17
:100E00000404994021431161002136E003EB830380
:100E1000A3F141041F23D2F82CC003FA04FE0B688F
:100E20002CEA0E0C03FA04F444EA0C04D462092BF5
:100E3000DED903EB4304D2F80CC0A4F11E0E072444
:100E4000896804FA0EF42CEA040401FA0EF1214335
:100E500023F00104102CD1600ED142F20841C4F2FB
:100E60000101A1F10804A2420ED0816A41F02001E3
:100E70008162012101E000BF0021002280F82420CE
:100E8000084601B010BD00BF0A68120230D40A68DB
:100E9000102B42F400020A602CD140F20801C2F289
:100EA000000109684DF68362C4F21B32A1FB0212F5
:100EB000910C01EB8101490000910099E1B1009989
:100EC000013900910099C9B1009901390091009947
:100ED000B1B1009901390091009999B10099013996
:100EE0000091009900294FF00001E8D1C5E700BF4B
:100EF0000021C2E70021C0E70021BEE70021BCE7D6
:100F00000021BAE70021B8E7F0B583B0006842F2EB
:100F10000041C4F2010188421CBF03B0F0BD40F2A1
:100F20008004C2F2000404F14807384600F0BEF91C
:100F300023886088A18840F2C416C2F2000604F13A
:100F40002805CDE900010EA230463F210295FFF7AA
:100F500057F93046FFF7C5FA82B240F28010C2F26C
:100F60000000314601F00CFD0023238063803846E9
:100F700021460322A38003B0BDE8F04000F00AB987
:100F8000443A2534643A2534643A25346425733A66
:100F9000440A0D007047000070470000B0B50028FB
:100FA00000F0A8800446806A20B121688868C007E4
:100FB0000BD114E00020E06284F82400204600F009
:100FC0009BF821688868C00709D0886820F0010074
:100FD000886000F0D1FC21688A68D20726D1A06A17
:100FE000C0063AD4A06A41F2021290430230A062D5
:100FF000E069D4E9013240EA030C531EB3FA83F3EB
:101000005D091346B2F5807F18BF2B02207D257B3A
:1010100001284CEA450030D135B3A56A45F02005DA
:10102000A562E56A45F00105E56226E0054602E0B5
:101030008868C007D3D000F09FFC401B21680328BC
:10104000F6D38868C007F3D0A06A40F01000A06211
:10105000E06A40F00100E062A06AA06A40F010007F
:10106000A0620120B0BD00BFD4F818C04EF6000544
:10107000CFF6FF7505EB4C352B434D68B2F5807FFD
:1010800025F4694543EA05034B608B684FF2FD7513
:10109000CFF6E17503EA050343EA00038B6001D054
:1010A000012A07D122690023CFF6F07303EB025225
:1010B00001E000BF0022CB6A23F470031A43CA6226
:1010C000896840F6FE62CFF61F721140814207D157
:1010D0000020E062A16A012262F30101A162B0BDB9
:1010E000A06A40F0100020F00200A062E06A40F028
:1010F0000100E0620120B0BD70B586B0044640F644
:101100000000C4F20100216800F5E052002691427F
:101110000596049602D006B070BD00BF41F21801DA
:10112000C4F202010A6842F400720A600A6802F41A
:1011300000720192019A0A6842F004020A6009688A
:1011400001F00401019101991321029103210391FE
:1011500002A900F0FBFA40F2F8050820C2F20005EF
:10116000C4F202004FF48072C5E9000605F11000D8
:1011700080214FF480634CC02846C5E90261EE61CE
:1011800000F038FA002818BFFFF764FD25626C6292
:1011900006B070BD70B515460446006842F6000200
:1011A000C4F2010290420E4605D042F20041C4F260
:1011B0000101884209D142F20440C4F201000068F2
:1011C00010F4702F1CBF012070BD94F8240001287A
:1011D00004BF022070BD012084F824002046FFF7E0
:1011E000D5FA18B1002184F8241070BD42F20440F1
:1011F0002168A26AC4F2010040F601739A4300F527
:101200007F7302F580729942A26243D0A06A20F4F3
:101210008010A0624868400504D5A06A012262F3EC
:101220000D30A062A26A0020D2044FF0000244BF39
:10123000E26A22F00602E26284F82400206A40F2A8
:101240001972C0F6000240F2857340F26D7C00F125
:10125000280EC0F60003C0F6000C8EE80C106FF0EC
:1012600002020A608A682B4642F480728A604C311E
:10127000324600F0FBF92068816801F46022816841
:10128000B2F5602F0CBF41F4A00141F480118160E0
:10129000002070BD026812F4702FB7D0A26A42F429
:1012A0008012A26200684005BCD5B6E7B0B504461E
:1012B00090F82400012804BF0220B0BD012021685D
:1012C00084F824008868C00709D0886820F00100ED
:1012D000886000F051FB21688A68D2071AD18868BB
:1012E00020F480708860206A90F8211002290BD1C8
:1012F00000F038F8A16A48B341F04001A162002132
:1013000084F82410B0BD00BF0020002184F8241010
:10131000B0BD00BF054602E08868C007DFD000F01E
:101320002BFB401B21680328F6D38868C007F3D045
:10133000A06A40F01000A062E06A40F00100E062A4
:101340000120002184F82410B0BD00BF41F201103B
:1013500021EA00000130A0620020002184F824105E
:10136000B0BD0000014690F82100022816D108689F
:10137000D1E90FC3026822F00E020260026822F077
:1013800001020260012000FA03F2CCF8042081F887
:1013900021000020002281F820207047042088636B
:1013A0000120002281F820207047000080B590F8CD
:1013B0002110022924D10268116821F00E01116068
:1013C0002F211368C4F202018A4240F20401C4F2E0
:1013D000020123F00103136016DD3023C4F202037F
:1013E0009A421DD04423C4F202039A421CD05823CF
:1013F000C4F202039A421DD14FF4803322E000BFB1
:1014000004218163012080BD0823C4F202039A42B3
:101410000ED01C23C4F202039A420BD1102311E018
:101420004FF480730EE000BF4FF480530AE000BF1A
:10143000012307E001F1680C4FF08073624508BF9B
:101440004FF480130B60416B4FF48072028401B142
:101450008847002080BD000010B5D0E90FCE01689C
:10146000DCF800300A6823FA0EF35C072AD512F084
:10147000040427D00A68920603D40A6822F0040202
:101480000A602F22C4F20202914240F20402C4F226
:10149000020259DD3023C4F20203994270D0442382
:1014A000C4F20203994271D05823C4F20203994254
:1014B00078D14FF480231360C16A002940F09780EF
:1014C0006EE000BF9C0727D512F0020424D00A6802
:1014D000920606D40A6822F00A020A60012280F805
:1014E00021202F22C4F20202914240F20402C4F2EF
:1014F000020239DD3023C4F2020399425ED0442354
:10150000C4F2020399425DD05823C4F20203994207
:101510005ED14FF4003363E01B0741D512F008029F
:1015200008BF10BD0A6822F00E020A60012101FA0C
:101530000EF2CCF804208163016B4FF48072002915
:10154000028454D12CE000BF0823C4F20203994264
:1015500022D01C23C4F20203994223D140231360FA
:10156000C16A002943D11BE00823C4F20203994257
:101570002CD01C23C4F20203994229D120232FE04E
:101580004FF480631360C16A89BB09E04FF4804364
:101590001360C16A59BB03E004231360C16A31BB05
:1015A00010BD00BF02F168044FF08063A14208BF84
:1015B0004FF480031360C16AC9B9F1E74FF40073B7
:1015C0000EE000BF4FF400530AE000BF022307E023
:1015D00002F168044FF00073A14208BF4FF40013FA
:1015E0001360816A0022002980F82020D8D0BDE84D
:1015F00010400847002804BF012070472DE9F04142
:1016000001684FF6F872CBF6FD724CF6CD430A44F2
:10161000CCF6CC43A2FB03236FF0030707EA930346
:101620000027C4F2020700F1040E00F11008C0E91F
:101630000F739EE8045098E870010B6843F6F0774A
:10164000BB431A4342EA0C0242EA0E0222432A43F7
:10165000324342EA08020A6000214FF4807281633B
:101660000284BDE8F041084670470000F0B590F8EC
:1016700020C0BCF1010F32D090F821C04FF0010E14
:10168000BCF1010F80F820E026D14FF0020C80F869
:1016900021C04FF0000CC0F838C0D0E900C4C56AC2
:1016A000C66BDCF80070102C27F00107CCF8007036
:1016B000006C0EFA00F070600846CCF8043004BFED
:1016C00010460A46CCF80800CCF80C20DCF80000E4
:1016D00045B140F00E000DE0002180F820100220FE
:1016E000F0BD00BF20F00400CCF80000DCF80000E2
:1016F00040F00A00CCF80000DCF8000040F00100E7
:10170000CCF800000020F0BDB0B5044600F034F97C
:10171000054640F20000C2F200000078611C18BFCC
:10172000044400BF00F028F9401BA042FAD3B0BD2A
:101730007047000040F21441C4F201010A680242FD
:1017400014BF08607047FFF7F3BF00002DE9F04FAA
:1017500082B041F20042C4F201020E6804239042BA
:1017600008BF0323002E009300F0F68040F20C4ED9
:101770004FF6FF7CC4F2010E00220124C1F2100CCE
:101780004FF0000A4FF0000943E000BF012502F0CE
:101790000C040F27A7402BEA070705FA04F43C4383
:1017A00043F82640D1F804B040F20045C4F20105E8
:1017B0005FEACB332B6854BF23EA080343EA0803EC
:1017C0002B606B685FEA8B3454BF23EA080343EA5B
:1017D00008036B605FEACB24AB6854BF23EA0803BD
:1017E00043EA08035FEA8B24AB60DEF800304FF079
:1017F000010454BF23EA080343EA0803CEF800308B
:101800000E680AF1010A36FA0AF302F1040200F046
:10181000A38004FA0AF816EA080FF1D04B68634572
:1018200012DC122B56D8DFE803F0350B454955552D
:1018300055555555555555555555554D510000BFA4
:10184000D1F80C9046E000BF4FF6FF77C1F22107B8
:10185000BB420FDC0027C1F21107BB421AD00027A0
:10186000C1F21207BB4215D00027C1F22107BB42CB
:1018700010D02FE00027C1F22207BB420AD0002778
:10188000C1F23107BB4205D00027C1F23207BB428B
:1018900020D100BF8B684BB1012B14BFC0F814805E
:1018A000C0F810804FF0080914E000BF4FF00409A1
:1018B00010E000BFCB6803F108090BE04FF000090E
:1018C00008E000BFCB6803F1040903E0CB6803F133
:1018D0000C0900BF13460546BAF1080F24BF203B90
:1018E00004352E680F279F40BE4309FA03F33343A4
:1018F0002B60CB79DB067FF583AF41F21804C4F28D
:10190000020423684FEA9A0643F001032360236828
:1019100040F6000403F001030193019B40F20043F1
:10192000C4F20103A3F57E7353F826B0C4F2010498
:10193000A0420FD040F60044C4F20104A0423FF49C
:1019400025AF41F20004C4F20104009DA04208BF8B
:1019500002251CE700251AE702B0BDE8F08F000061
:101960008068084018BF012070470000002A08BFA7
:10197000090401617047000040F20420C2F2000037
:101980000068704740F2000040F20421C2F20000FB
:10199000C2F2000100780A68104408607047000035
:1019A00080B542F20000C4F20200016841F010016B
:1019B0000160032000F08AF8002000F005F800F034
:1019C00027F8002080BD000070B540F20006C2F28A
:1019D000000640F208013278C2F200014FF47A7337
:1019E0000968B3FBF2F20446B1FBF2F1084600F0DD
:1019F0005DFC0F2C4FF0010508D838B94FF0FF30CF
:101A000021460022002500F035F87460284670BD9C
:101A100082B041F21800C4F202000168022241F0D3
:101A200001010160016801F0010101910199416822
:101A300041F080514160406800F080500090009873
:101A40000420C4F20100016862F31A61016002B06F
:101A500070470000002848BF704700F01F010122B6
:101A600002FA01F14EF200124009CEF2000242F8F1
:101A70002010704710B54EF60C5CCEF2000CDCF86E
:101A80000030C3F3022E8EF00704042C28BF042478
:101A9000BEF103034FF0FF3E0EFA04F438BF0023FB
:101AA000A14399400EFA03F39A43114300F00F0249
:101AB000043A624409010C3200F16043B0F1FF3F87
:101AC000C8BF03F56442117010BD00004EF60C5102
:101AD000CEF200010A684FF6FF031A4060F30A22B3
:101AE00042F0806040F0FD700860704780B50128CA
:101AF00018D0022836D0102832D141F20401C4F2A5
:101B000002010A6851F8040CC00129D5C2F38340D0
:101B10002DA3185CD2033DD440F60012C0F23D0262
:101B2000504343E041F20400C4F20200C16940F2B4
:101B300002320A40B2F5817F04BF4FF4004080BDFD
:101B400001F44071B1F5407F1CD0B1F5007F07D1A1
:101B5000006A49F64041800701EAE07080BD00BF9D
:101B6000002080BD00F0B4F941F20401C4F202018A
:101B700009680222C1F3813102EB4101B0FBF1F0AF
:101B800080BD00BF50F8040C4FF22441800301EAED
:101B9000E07080BD0A6810A3C2F340429A5C41F233
:101BA0000023C0F27A03B3FBF2F250430968490202
:101BB00048BF80BD4AF6AB214000CAF6AA21A0FB6F
:101BC0000101480880BD00BF02030405060708099B
:101BD0000A0B0C0D0E0F1010010200002DE9F04150
:101BE00082B00446007841F21C06C007C4F2020627
:101BF0004AD0306810F0805808D1306840F08050EA
:101C00003060306800F080500190019847F2000782
:101C1000C4F200073868C00512D4386840F48070F8
:101C20003860FFF7A9FE05463868C00508D4FFF7FD
:101C3000A3FE401B6428F7D9032002B0BDE8F08161
:101C4000706810F4407012D0616801F440718842ED
:101C50000DD0706840F24042C4F24222012320F4C9
:101C6000407113600023C007136071602AD170684F
:101C7000616820F440700843B8F1000F706003D130
:101C8000306820F0805030602068810707D556F812
:101C9000181CA26821F44041114346F8181CC006E4
:101CA00004D4002002B0BDE8F08100BF56F8180C43
:101CB000E16820F48000084346F8180C002002B0C8
:101CC000BDE8F081FFF758FE054641F2883700BFB6
:101CD00070688007CBD4FFF74FFE401BB8424FF02F
:101CE0000300F5D9EBE700002DE9F04381B00028AF
:101CF00000F0858042F20008C4F202080446D8F8D9
:101D000000000D4600F0070088420CD2D8F8000011
:101D100020F007002843C8F80000D8F8000000F0C1
:101D20000700A8426BD1206841F204098107C4F280
:101D3000020917D5410705D5D9F8001041F4E06133
:101D4000C9F80010010705D5D9F8001041F4605119
:101D5000C9F80010D9F80010A26821F0F001114371
:101D6000C9F80010C00741D1D8F8000000F0070002
:101D7000A8420CD9D8F8000020F007002843C8F882
:101D80000000D8F8000000F00700A84237D1206812
:101D9000410707D5D9F80010E26821F4E06111434A
:101DA000C9F80010000708D5D9F80000216920F40F
:101DB000605040EAC100C9F80000D9F8002002F0E4
:101DC0000C00082841F20020C0F27A0050D143F202
:101DD0006203C2F38341C0F60003595CD2033BD4D3
:101DE00040F60010C0F23D00484341E06068022820
:101DF0000AD001282AD159F8041C890308D40120EB
:101E000001B0BDE8F08300BF59F8041C8901F6D584
:101E1000D9F8001021F003010843C9F80000FFF7CA
:101E2000ABFD064641F28837D9F80000616800F042
:101E30000C00B0EB810F97D0FFF79EFD801BB842DE
:101E4000F2D9032001B0BDE8F08300BF59F8041CAB
:101E50008907D4D5DCE700BFD9F8002043F2480356
:101E6000C2F34042C0F600039A5C4843B0FBF2F074
:101E7000D9F8001043F24A02C1F30311C0F6000280
:101E8000515C40F2080220FA01F140F20400C2F273
:101E900000000068C2F200021160FFF795FD00200B
:101EA00001B0BDE8F083000040F2080041F20401F7
:101EB000C2F20000C4F202010068096843F25A024B
:101EC000C1F30221C0F60002515CC8407047000017
:101ED00040F2080041F20401C2F20000C4F2020123
:101EE0000068096843F25A02C1F3C221C0F6000239
:101EF000515CC840704700002DE9F04182B00028D5
:101F000068D00446007841F20006C007C4F2020619
:101F100025D0706800F00C0004281BD0706800F019
:101F20000C00082802D17068C00313D46068002830
:101F300000F06881B0F5A02F00F07C81B0F5803F03
:101F400000F07C81306820F480303060306820F40C
:101F5000802076E13068800301D56068D0B32078B6
:101F6000800718D5706810F00C0F07D0706800F06B
:101F70000C0008286ED17068C0036BD430688007ED
:101F800002D52069012825D13068616920F0F80068
:101F900040EAC1003060207800071FD42078400755
:101FA00032D4E56995B1706800F00C00082840F063
:101FB0008F80012D0ED07068216A00F480328A4231
:101FC00008D1616A00F47010884203D1002002B089
:101FD000BDE8F081012002B0BDE8F081A0690028D1
:101FE00062D00020C4F242200121C0F88014FFF723
:101FF000C3FC0546706A800700F18C80FFF7BCFCCB
:10200000401B0228F6D92AE1F06910F0805808D167
:10201000F06940F08050F061F06900F0805000906D
:10202000009847F20007C4F200073868C00529D4B9
:10203000386840F480703860FFF79EFC054600BFAA
:102040003868C0051ED4FFF797FC401B6428F7D9F9
:1020500005E100BF2069002840F20000C4F24220E0
:1020600000F0828001210160FFF786FC054600BF79
:10207000306880073FF588AFFFF77EFC401B0228E1
:10208000F6D9ECE0E068002800F08080052800F038
:102090009780012800F09880306A20F001003062BB
:1020A000306A20F0040092E00020C4F242200021B7
:1020B000C0F88014FFF760FC054600BF706A800717
:1020C0007FF56CAFFFF758FC401B0228F6D9C6E03D
:1020D0000027C4F2422700203866FFF74DFC022D8E
:1020E00005460BD13068800140F1BE80FFF744FC0B
:1020F000401B02284FF00300F4D968E730688001E4
:102100007FF564AFFFF738FC401B02284FF0030057
:10211000F4D95CE740F20800C2F20000006844F61F
:10212000D351C1F26201A0FB0101480A019000BF36
:1021300000BF0198411E002801913FF42FAF00BF5E
:102140000198411E002801913FF428AF00BF01987B
:10215000411E002801913FF421AF00BF0198411EAC
:1021600000280191E4D119E700210160FFF704FC88
:10217000054600BF306880077FF50DAFFFF7FCFB19
:10218000401B02284FF00300F4D920E7306A20F00A
:1021900001003062306A20F004003062FFF7ECFB8F
:1021A000054641F2883700BF306A800720D5FFF727
:1021B000E3FB401BB8424FF00300F5D907E700BF2F
:1021C000306A40F004003062306A40F00100306252
:1021D000FFF7D2FB054641F2883700BF306A80071F
:1021E00006D4FFF7C9FB401BB842F7D937E000BF60
:1021F000B8F1000F7FF4D5AEF06920F08050F061A7
:10220000CFE600BF306820F480303060306820F4C2
:1022100080203060FFF7B0FB054600BF30688003C8
:102220007FF59DAEFFF7A8FB401B64284FF003002D
:10223000F4D9CCE6306840F480203060306840F457
:1022400080303060FFF798FB054600BF30688003A0
:102250003FF585AEFFF790FB401B6428F6D90320BD
:1022600002B0BDE8F08100BF206AB0F5803F05D123
:102270007168A26821F40031114371607168626A6B
:1022800021F4741110430843706001203866FFF791
:1022900073FB0446306880013FF598AEFFF76CFB96
:1022A000001B02284FF00300F4D990E6411E0020E5
:1022B000B0EB116F1CBF012070474EF21002CEF23E
:1022C000000251604EF62351CEF20001F0230B7054
:1022D0000721906011607047704700007047000050
:1022E000B0B582B0026805461068D368546900F042
:1022F0002F01202903F0200106D129B1284602B080
:10230000BDE8B04000F074BB5FEA007C1EBF04F083
:10231000010E03F4907414EB0E0455D1296B0129BE
:1023200005D110F0100118BF13F0100136D10106CD
:1023300022D513F080011FD095F83D00212841D10E
:10234000A868B0F5805F03D12869002800F0F68006
:10235000286A411C296200785060E88C0138010429
:10236000E8842FD1D06820F08000D060D06840F0A1
:102370004000D06002B0B0BD400623D513F040004D
:1023800020D0D068202120F04000D060284685F879
:102390003D1002B0BDE8B04000F014BB0020019039
:1023A000106801905068019001985069400613D45C
:1023B000A88DE98DEB8D002B1CBF401A5FEA004110
:1023C00040F0A48002B0B0BDC40718BF13F48073FE
:1023D0002CD1430730D436E0A86B01684B689CB21F
:1023E000002CEFD0A98D8C42ECD2EB858369202B99
:1023F00017D0D16821F48071D160516921F00101B9
:102400005161516921F040015161202185F83E1050
:1024100000212963D16821F01001D160FEF7A2FFED
:10242000A98DE88D081A81B2284682E02B6C43F012
:1024300001032B64430706D5BEF1000F03D02B6CBC
:1024400043F002032B64830706D5BEF1000F03D0CF
:102450002B6C43F004032B64BCF1000F06D551EA4A
:102460000E0303D02B6C43F008032B642B6C002B62
:10247000A8D010F0200018BF002903D0284600F093
:10248000B7FA2A685069296C00F0400001F0080191
:1024900040182DD0D06820F49070D060506920F0A2
:1024A00001005061286B012803D1D06820F0100092
:1024B000D060202085F83E00002028635069400647
:1024C0001ED5506920F040005061A86BC0B142F6A3
:1024D000E511C0F600014163FEF768FF00283FF4F4
:1024E00071AFA86B416B02B0BDE8B040084700BFB8
:1024F0002846FFF7F3FE0020286402B0B0BD00BFFD
:10250000284602B0BDE8B040FFF7E8BED16821F42C
:102510009071D160516921F001015161202185F84C
:102520003E1000212963D16821F0100381B22846B2
:10253000D36002B0BDE8B040FFF7CEBE286A30F8E5
:10254000021B6FF35F215160286206E7002804BF79
:102550000120704710B5044690F83D0028B90020CE
:1025600084F83C00204600F05FF8242084F83D0009
:102570002068D4E90212C36823F40053C3600369DE
:1025800023F440531A430261D4E904231143C2687F
:10259000194341F20C639A431143C1604169A26936
:1025A00021F44071114343F60002C4F2010290424B
:1025B000416103D0FFF778FC02E000BFFFF788FC21
:1025C0006268192148439100B0FBF1F048F21F51B5
:1025D000C5F2EB11A0FB01235A096FF0630302FB64
:1025E0000300322303EB0010A0FB0101F02303EAF8
:1025F0005113206803EB0212C1F3431111448160AF
:10260000016921F490410161416921F02A01416190
:10261000C16841F40051C16000202021206484F889
:102620003D1084F83E1010BDB0B586B0006844F28D
:102630000041C4F2000188424FF00001CDE90411CD
:10264000CDE9021138D043F60001C4F201018842FD
:102650005CD141F21800C4F20200016840F60004A7
:1026600041F4804101600168C4F2010401F4804139
:1026700001910199016802AD41F004010160006817
:10268000294600F00400019001984FF40070029078
:1026900002200390032005902046FFF757F84FF4DF
:1026A000806002900020CDE9030020462946FFF714
:1026B0004DF806B0B0BD00BF41F21800C4F20200F0
:1026C000416841F400314160416801F400310191F9
:1026D0000199016841F004010160006802A900F05D
:1026E0000400019001980C200290022003900590B4
:1026F00040F60000C4F20100FFF728F82620002170
:102700000022FFF7B7F92620FFF7A4F906B0B0BD05
:10271000034690F83E0020280AD100294FF001001E
:1027200018BF002A00D1704793F83C00012801D15E
:102730000220704700201863996222219A85DA8569
:10274000186483F83E10196883F83C00CA6842F4A4
:102750008072CA604A6942F001024A61CA6842F066
:102760002002CA607047000040F28011C2F20001EE
:10277000884218BF7047B0B540F28005C2F200052C
:10278000A87D0A284CD1AC1D5FA120460922FDF787
:102790007CFE002850D05FA120460A22FDF775FE7E
:1027A000002851D05EA120460922FDF76EFE0028C8
:1027B00050D05EA120460A22FDF767FE002851D0C6
:1027C0005DA120460922FDF760FE002850D05DA1E2
:1027D00020460A22FDF759FE002853D05CA120466E
:1027E0000922FDF752FE002878D05CA120460A227B
:1027F000FDF74BFE002879D05BA120460922FDF7AA
:1028000044FE00287AD05BA120460A22FDF73DFE57
:10281000002841D140F60000C4F2010038E000BFBA
:10282000A81D05F116010122FDF71DFEA81DFDF7EB
:1028300058FE0B2847D33DE040F60000C4F20100EB
:102840004021012226E000BF40F60000C4F2010052
:1028500040211EE040F60000C4F2010020210122C8
:1028600018E000BF40F60000C4F20100202110E093
:1028700040F60000C4F2010000F500608021012252
:1028800008E000BF40F60000C4F2010000F500605F
:1028900080210022FFF76AF80020C5F81200C5F871
:1028A0000E00C5F80A00C5F80600A81DFDF719FEC0
:1028B0000B2808D30020C5F81200C5F80E00C5F893
:1028C0000A00C5F8060040F2801005F11601C2F2B8
:1028D00000000122BDE8B040FFF71ABF40F600003B
:1028E000C4F2010000F58060AAE700BF40F60000D6
:1028F000C4F2010000F58060AAE700BF40F60000C6
:10290000C4F20100BAE700BF4C45445F525F4F4E2E
:10291000000000004C45445F525F4F4646000000F7
:102920004C45445F425F4F4E000000004C45445F01
:10293000425F4F46460000005247425F525F4F4E93
:10294000000000005247425F525F4F4646000000C1
:102950005247425F475F4F4E000000005247425FC0
:10296000475F4F46460000005247425F425F4F4E6E
:10297000000000005247425F425F4F4646000000A1
:10298000034690F83D0020280AD100294FF00100AD
:1029900018BF002A00D1704793F83C00012801D1EC
:1029A000022070471962002021219A84DA84186479
:1029B00083F83D10196883F83C00CA6842F0800231
:1029C000CA60704770470000FEE70000FEE70000A5
:1029D000FEE700007047000070470000FEF7D2BF1E
:1029E00070470000406A0021C185C184FFF776BCB2
:1029F00081B090F83E10222920D18368B3F5805F22
:102A000008D10169002941D000F128010A68036852
:102A10005B680AE0014651F8282F13B90369002BBF
:102A2000F5D003685B6803F07F0313700A68013216
:102A30000A60C18D01390A04C18501D001B0704717
:102A40000168CA6822F02002CA60CA6822F4807253
:102A5000CA604A6922F001024A61202280F83E20C1
:102A6000026B012A1CD100220263CB6823F0100301
:102A7000CB600B68DB0605D500920A6800924968B6
:102A800000910099818D01B0FFF726BC0168826A30
:102A900049686FF35F2122F8021B8262C9E700BF19
:102AA00001B0FFF761BE000040F28010C2F20000EA
:102AB000FFF716BCFEE7000094B0FEF771FF00249C
:102AC0000120CDE90F44CDE90D440A900E904FF45A
:102AD000803012904FF4E0104FF4A02102251390A3
:102AE0000AA80494CDE90244CDE90B141195FFF72F
:102AF00003FA28B1EFF3108072B600BFFEE700BF03
:102B00000F20CDE905054FF48060CDE9080405A844
:102B100002210794FFF7E8F820B1EFF3108072B6B6
:102B2000FEE700BF4FF400404FF0020A039001A8F7
:102B3000CDF804A0FFF752F820B1EFF3108072B681
:102B4000FEE700BF002741F218050D97C4F2020509
:102B5000286840F6000B40F0100028602868C4F296
:102B6000010B00F01000059005982868E02140F066
:102B7000200028602868002200F0200005900598B9
:102B800028684FF0E00940F004002860286800F051
:102B9000040005900598286840F00800286028681F
:102BA00000F00800059005985846FEF7DFFE0BF58B
:102BB0000068404680210022FEF7D8FE0BF58066B3
:102BC000304640210022FEF7D1FE4FF400500A901B
:102BD0000020C1F211000AACCDE90B0740462146A6
:102BE000FEF7B4FDCDF828904FF001095846214674
:102BF000CDE90B97CDF834A0FEF7A8FD8020CDE9F4
:102C00000A0940462146CDE90C7AFEF79FFD2020B7
:102C1000CDE90A07304621460C97FEF797FD402084
:102C2000CDE90A0930462146CDE90C7AFEF78EFD42
:102C3000282000210022FEF71DFF2820FEF70AFFB2
:102C400055F8040C002140F0010045F8040C55F83B
:102C5000040C002200F001000A900A980B20FEF7F5
:102C600009FF0B20FEF7F6FE40F28010ABF5444161
:102C7000C2F200000C234FF4E13280E88600C0E984
:102C80000377C0E90537C761FFF760FC20B1EFF3B8
:102C9000108072B6FEE700BF40F28009C2F2000960
:102CA0000BF5E051484640F8481F4FF480714FF44F
:102CB0006022C0E90171032107730775C2610161D8
:102CC000FEF76CF920B1EFF3108072B6FEE700BF9B
:102CD0000020012509F148040A90CDE90B500AA90A
:102CE0002046FEF747F828B1EFF3108072B600BF18
:102CF000FEE700BF02200B900AA920460A95FEF7C6
:102D000039F828B1EFF3108072B600BFFEE700BFBC
:102D100004200A9003200B900AA92046FEF72AF807
:102D200020B1EFF3108072B6FEE700BF40F23C1016
:102D30000BF54051C2F2000000230C274FF4E132A2
:102D400080E80E00C0E90333C0E90573C361FFF7F3
:102D5000FDFB28B1EFF3108072B600BFFEE700BFA5
:102D6000404680210022FEF701FE3046402100222D
:102D7000FEF7FCFD584680210022FEF7F7FD58467D
:102D800040210022FEF7F2FD584620210022FEF7E6
:102D9000EDFD2046FDF764FF204649460222FEF77E
:102DA000F9F940F2801009F11601C2F20000012287
:102DB000FFF7AEFC40F20C08C2F200080DF1280A41
:102DC00009F128070FF23C0B2046FEF76FFA504638
:102DD0004146FDF739FDDDE90A6000F021F80546BE
:102DE000304600F01DF80346384659462A46FDF79E
:102DF000F3F9204649460322FEF7CCF90520FEF7F9
:102E000083FCE1E73A2533643A253364000000008F
:102E100030380A2801D20120704700207047000096
:102E200041000B0ED3F19E0208D950F400034FEA83
:102E3000032323FA02F048BF4042704710B500F068
:102E4000B8F800BF49922480002070476FF000421C
:102E500082EA20007047000010F0004148BF404265
:102E6000B0FA80F310FA03F2C3F19D030BD051EADC
:102E7000C35101EB1220530638BF704700F1010027
:102E800008BF20F001007047B0FA80F310FA03F297
:102E9000C3F19D030AD0D90501EB1220530638BFB8
:102EA000704700F1010008BF20F0010070470000EA
:102EB0004FF47F0C1CEAD0121EBF1CEAD11392EA19
:102EC0000C0F93EA0C0F00F0478090EA010F48BF07
:102ED00042F480724FF0004C4CEA00204CEA012191
:102EE00002EB0302A0FB0113A2F50002002918BFA8
:102EF00043F001035B0028BF4FEA330342EB224259
:102F00005FEA132C4CEBC2502EBFBCEB436FB2F503
:102F10007C0F70474FEA036CBCF1004F08BF20F0F4
:102F20000100B2F57C0F38BF70470BD582F0FF026D
:102F300012F5803FC8BF704700F1C040D8BF00F015
:102F40000040704700F5000C5FEA4C0C48BF70472A
:102F5000B0F1C04000F073B80CEAD11390EA010F51
:102F600048BF42F48072624538BF634504D280EAAC
:102F7000010000F00040704710B500F01AF800BFE3
:102F80008900013E00F007B800F009B85FEA410C83
:102F90005FEA1C6C08D080EA010000F050B85FEADC
:102FA000400C5FEA1C6CF6D14FF00040A0F58000A9
:102FB00070470EF1020E2EF0030E5EF8044B244211
:102FC00004D44FEA4102B2F17F4F11D84FEA4003D7
:102FD000B3F17F4F0CD80ED14FEAD07C0CEB4C0CE8
:102FE0000CF1020CB2F17F4F08BF4CEBD17C04E036
:102FF0004FF0080C01E04FEAD17C0CEB4C0324FAB3
:1030000003F404F00704B4F1040C06D20EEB840CB4
:10301000BDE810404CF0010C6047DFE80CF00708F9
:1030200002024FF00040A0F5800010BD08464200AB
:1030300018BFD2F1807288BF00F0004010BDFF21A0
:1030400041EAD050C00570470102000000000000B6
:103050000000010203040607080900000000010245
:10306000030402030405060708090A0B0C0D0E0FE2
:103070001010000098300008000000202000000020
:1030800028010008B830000820000020E8070000F0
:1030900044010008000000000100000010000000D2
:1030A0000024F400000C014020000000000000009B
:0830B000000000000000000018
:04000005080000ED02
:00000001FF
