:020000040800F2
:100000007807002089010008951300088D13000867
:100010009113000845020008B51300080000000015
:100020000000000000000000000000009D13000818
:10003000490200080000000099130008A1130008FD
:10004000A3010008A3010008A3010008A301000800
:10005000A3010008A30100084D0200085D0200088A
:10006000A3010008A301000865020008A30100081D
:10007000A3010008A3010008A3010008A3010008D0
:10008000A3010008A3010008A3010008A3010008C0
:10009000A3010008A3010008A3010008A3010008B0
:1000A000A3010008A9130008A3010008A301000888
:1000B000A3010008A3010008A3010008A301000890
:1000C000A3010008A3010008A3010008A301000880
:1000D000A3010008A3010008A3010008A301000870
:1000E00055020008A3010008A301000800F002F86F
:1000F00000F03AF80AA090E8000C82448344AAF188
:100100000107DA4501D100F02FF8AFF2090EBAE885
:100110000F0013F0010F18BFFB1A43F0010318473B
:10012000CC170000EC170000103A24BF78C878C143
:10013000FAD8520724BF30C830C144BF04680C60ED
:10014000704700000023002400250026103A28BF35
:1001500078C1FBD8520728BF30C148BF0B60704739
:100160001FB51FBD10B510BD00F031F81146FFF7E7
:10017000F7FF01F069FA00F04FF803B4FFF7F2FF60
:1001800003BC00F057F800000948804709480047C1
:10019000FEE7FEE7FEE7FEE7FEE7FEE7FEE7FEE737
:1001A000FEE7FEE704480549054A064B7047000094
:1001B000A5130008ED000008780100207807002052
:1001C0007803002078030020704770477047754619
:1001D00000F02CF8AE4605006946534620F00700B3
:1001E000854618B020B5FFF7DDFFBDE820404FF091
:1001F00000064FF000074FF000084FF0000BAC4630
:10020000ACE8C009ACE8C009ACE8C009ACE8C0097A
:1002100021F007018D46704710B50446AFF300800A
:100220002046BDE81040FFF7A8BF00000048704717
:100230008000002001491820ABBEFEE72600020026
:1002400070470000FEE7000070470000012000F04A
:1002500047B800004FF4005000F042B8022000F010
:100260003FB80000102000F03BB8000040F2000151
:100270000128C2F200011BD0102825D0022818BF87
:10028000704740F22C12C2F20002126848681368EC
:10029000013823F0010318BF0120034413600A68EA
:1002A0004860C86B01EB8201096C01F085B800BFA2
:1002B000086803281ABF421C0A600322C86B01EBBE
:1002C0008201096C01F078B80868421E14BF0A6008
:1002D0000122C86B01EB8201096C01F06DB80000CE
:1002E00040F21441C4F201010A68024214BF0860DE
:1002F0007047FFF7BBBF00002DE9F04F82B041F21D
:100300000042C4F201020E680423904208BF032396
:10031000002E009300F0F68040F20C4E4FF6FF7C6A
:10032000C4F2010E00220124C1F2100C4FF0000AA9
:100330004FF0000943E000BF012502F00C040F2735
:10034000A7402BEA070705FA04F43C4343F826408C
:10035000D1F804B040F20045C4F201055FEACB33A6
:100360002B6854BF23EA080343EA08032B606B6839
:100370005FEA8B3454BF23EA080343EA08036B6047
:100380005FEACB24AB6854BF23EA080343EA0803BF
:100390005FEA8B24AB60DEF800304FF0010454BFFD
:1003A00023EA080343EA0803CEF800300E680AF196
:1003B000010A36FA0AF302F1040200F0A38004FAFB
:1003C0000AF816EA080FF1D04B68634512DC122BCD
:1003D00056D8DFE803F0350B454955555555555569
:1003E000555555555555554D510000BFD1F80C90F8
:1003F00046E000BF4FF6FF77C1F22107BB420FDC9A
:100400000027C1F21107BB421AD00027C1F2120720
:10041000BB4215D00027C1F22107BB4210D02FE00C
:100420000027C1F22207BB420AD00027C1F23107E0
:10043000BB4205D00027C1F23207BB4220D100BF2A
:100440008B684BB1012B14BFC0F81480C0F810802A
:100450004FF0080914E000BF4FF0040910E000BF9E
:10046000CB6803F108090BE04FF0000908E000BF7A
:10047000CB6803F1040903E0CB6803F10C0900BF6A
:1004800013460546BAF1080F24BF203B04352E68F9
:100490000F279F40BE4309FA03F333432B60CB7908
:1004A000DB067FF583AF41F21804C4F2020423682F
:1004B0004FEA9A0643F001032360236840F60004E4
:1004C00003F001030193019B40F20043C4F20103D6
:1004D000A3F57E7353F826B0C4F20104A0420FD0F6
:1004E00040F60044C4F20104A0423FF425AF41F2BB
:1004F0000004C4F20104009DA04208BF02251CE7CD
:1005000000251AE702B0BDE8F08F0000002A08BFFE
:10051000090401617047000040F27410C2F200004B
:100520000068704740F2700040F27411C2F200009F
:10053000C2F2000100780A681044086070470000A9
:1005400080B542F20000C4F20200016841F01001DF
:100550000160032000F08AF8002000F005F800F0A8
:1005600027F8002080BD000070B540F27006C2F28E
:10057000000640F278013278C2F200014FF47A733B
:100580000968B3FBF2F20446B1FBF2F1084600F051
:100590005FFB0F2C4FF0010508D838B94FF0FF3042
:1005A00021460022002500F035F87460284670BD11
:1005B00082B041F21800C4F202000168022241F048
:1005C00001010160016801F0010101910199416897
:1005D00041F080514160406800F0805000900098E8
:1005E0000420C4F20100016862F31A61016002B0E4
:1005F00070470000002848BF704700F01F0101222B
:1006000002FA01F14EF200124009CEF2000242F865
:100610002010704710B54EF60C5CCEF2000CDCF8E2
:100620000030C3F3022E8EF00704042C28BF0424EC
:10063000BEF103034FF0FF3E0EFA04F438BF00236F
:10064000A14399400EFA03F39A43114300F00F02BD
:10065000043A624409010C3200F16043B0F1FF3FFB
:10066000C8BF03F56442117010BD00004EF60C5176
:10067000CEF200010A684FF6FF031A4060F30A2227
:1006800042F0806040F0FD70086070472DE9F04353
:1006900081B0002800F0858042F20008C4F2020810
:1006A0000446D8F800000D4600F0070088420CD23E
:1006B000D8F8000020F007002843C8F80000D8F858
:1006C000000000F00700A8426BD1206841F2040945
:1006D0008107C4F2020917D5410705D5D9F80010E2
:1006E00041F4E061C9F80010010705D5D9F8001000
:1006F00041F46051C9F80010D9F80010A26821F047
:10070000F0011143C9F80010C00741D1D8F800002A
:1007100000F00700A8420CD9D8F8000020F007002C
:100720002843C8F80000D8F8000000F00700A842ED
:1007300037D12068410707D5D9F80010E26821F4C5
:10074000E0611143C9F80010000708D5D9F800008E
:10075000216920F4605040EAC100C9F80000D9F8CE
:10076000002002F00C00082841F20020C0F27A00BC
:1007700050D141F6DC03C2F38341C0F60003595C5B
:10078000D2033BD440F60010C0F23D00484341E0A4
:10079000606802280AD001282AD159F8041C89036C
:1007A00008D4012001B0BDE8F08300BF59F8041C53
:1007B0008901F6D5D9F8001021F003010843C9F8E2
:1007C0000000FFF7A9FE064641F28837D9F800007D
:1007D000616800F00C00B0EB810F97D0FFF79CFE32
:1007E000801BB842F2D9032001B0BDE8F08300BFFE
:1007F00059F8041C8907D4D5DCE700BFD9F80020DC
:1008000041F6C203C2F34042C0F600039A5C48437B
:10081000B0FBF2F0D9F8001041F6C402C1F30311A5
:10082000C0F60002515C40F2780220FA01F140F279
:100830007400C2F200000068C2F200021160FFF70B
:1008400093FE002001B0BDE8F083000040F2780084
:1008500041F20401C2F20000C4F20201006809681A
:1008600041F6D402C1F30221C0F60002515CC84037
:100870007047000040F2780041F20401C2F200002B
:10088000C4F202010068096841F6D402C1F3C22132
:10089000C0F60002515CC840704700002DE9F041ED
:1008A00082B0002868D00446007841F20006C007F4
:1008B000C4F2020625D0706800F00C0004281BD09A
:1008C000706800F00C00082802D17068C00313D4CF
:1008D0006068002800F06881B0F5A02F00F07C81EE
:1008E000B0F5803F00F07C81306820F480303060CB
:1008F000306820F4802076E13068800301D560689C
:10090000D0B32078800718D5706810F00C0F07D08E
:10091000706800F00C0008286ED17068C0036BD4BA
:100920003068800702D52069012825D130686169C7
:1009300020F0F80040EAC1003060207800071FD4A2
:100940002078400732D4E56995B1706800F00C005A
:10095000082840F08F80012D0ED07068216A00F4C5
:1009600080328A4208D1616A00F47010884203D153
:10097000002002B0BDE8F081012002B0BDE8F081A6
:10098000A069002862D00020C4F242200121C0F8F2
:100990008014FFF7C1FD0546706A800700F18C8066
:1009A000FFF7BAFD401B0228F6D92AE1F06910F0E2
:1009B000805808D1F06940F08050F061F06900F093
:1009C00080500090009847F20007C4F20007386892
:1009D000C00529D4386840F480703860FFF79CFD6A
:1009E000054600BF3868C0051ED4FFF795FD401BC3
:1009F0006428F7D905E100BF2069002840F2000013
:100A0000C4F2422000F0828001210160FFF784FDE2
:100A1000054600BF306880073FF588AFFFF77CFDD3
:100A2000401B0228F6D9ECE0E068002800F0808046
:100A3000052800F09780012800F09880306A20F0A7
:100A400001003062306A20F0040092E00020C4F21D
:100A500042200021C0F88014FFF75EFD054600BF6C
:100A6000706A80077FF56CAFFFF756FD401B0228C8
:100A7000F6D9C6E00027C4F2422700203866FFF707
:100A80004BFD022D05460BD13068800140F1BE8040
:100A9000FFF742FD401B02284FF00300F4D968E73E
:100AA000306880017FF564AFFFF736FD401B0228F8
:100AB0004FF00300F4D95CE740F27800C2F2000086
:100AC000006844F6D351C1F26201A0FB0101480A5B
:100AD000019000BF00BF0198411E002801913FF422
:100AE0002FAF00BF0198411E002801913FF428AFAD
:100AF00000BF0198411E002801913FF421AF00BFC3
:100B00000198411E00280191E4D119E700210160FC
:100B1000FFF702FD054600BF306880077FF50DAF87
:100B2000FFF7FAFC401B02284FF00300F4D920E73E
:100B3000306A20F001003062306A20F00400306238
:100B4000FFF7EAFC054641F2883700BF306A8007AC
:100B500020D5FFF7E1FC401BB8424FF00300F5D968
:100B600007E700BF306A40F004003062306A40F0AE
:100B700001003062FFF7D0FC054641F2883700BF24
:100B8000306A800706D4FFF7C7FC401BB842F7D98C
:100B900037E000BFB8F1000F7FF4D5AEF06920F068
:100BA0008050F061CFE600BF306820F480303060C4
:100BB000306820F480203060FFF7AEFC054600BFAF
:100BC000306880037FF59DAEFFF7A6FC401B6428CC
:100BD0004FF00300F4D9CCE6306840F48020306058
:100BE000306840F480303060FFF796FC054600BF67
:100BF000306880033FF585AEFFF78EFC401B64280C
:100C0000F6D9032002B0BDE8F08100BF206AB0F53C
:100C1000803F05D17168A26821F4003111437160F1
:100C20007168626A21F474111043084370600120F6
:100C30003866FFF771FC0446306880013FF598AED6
:100C4000FFF76AFC001B02284FF00300F4D990E67E
:100C5000411E0020B0EB116F1CBF012070474EF207
:100C60001002CEF2000251604EF62351CEF2000186
:100C7000F0230B70072190601160704770470000EF
:100C80007047000010B590F83C20012A4FF0020296
:100C900033D080F83D200268D2F804E0D2F808C0D2
:100CA0000C682EF07003234340F2FF74C4F200047A
:100CB000A24253600ADCB2F1804F13D040F20043ED
:100CC000C4F200039A420DD011E000BF42F6004387
:100CD000C4F201039A4205D040F60003C4F20003B7
:100CE0009A4204D149682CF0800319439160012194
:100CF000002280F83D1080F83C20104610BD000016
:100D0000002804BF0120704710B5044690F83D004C
:100D100028B9002084F83C00204600F067F8022043
:100D200084F83D00206840F2FF730268C4F20003BB
:100D300042F6004C9842C4F2010C15DCB0F1804F31
:100D40001AD040F20041C4F20001884214D0984207
:100D500018DCB0F1804F1DD040F20041C4F2000118
:100D6000884217D01AE000BF604505D040F6000168
:100D7000C4F200018842EAD1A16822F070020A435D
:100D80009842E6DD604505D040F60001C4F200015E
:100D9000884203D1216922F440720A43A36922F0F8
:100DA0008001D4F804E0E268194360450160C26242
:100DB000C0F828E002D16169CCF83010012141610E
:100DC000002084F8461084F83E1084F83F1084F820
:100DD000401084F8411084F8421084F8431084F8DD
:100DE000441084F8451084F83D1010BD80B582B0E1
:100DF000006842F60041C4F2010188421CBF02B003
:100E000080BD41F21800C4F202000168002241F4E2
:100E1000006101600068002100F400600190019809
:100E20001920FFF7F7FB192002B0BDE88040FFF75B
:100E3000E1BB000090F83D1001291CBF0120704764
:100E4000022180F83D10006840F2FF72C168C4F2D0
:100E50000002904241F00101C16009DCB0F1804F15
:100E600012D040F20041C4F2000188420CD012E0DE
:100E700042F60041C4F20101884205D040F600016B
:100E8000C4F20001884206D1816801F007010629F9
:100E900004BF00207047016841F00101016000209B
:100EA0007047000080B590F83C20012A4FF0020204
:100EB00000F0BF8080F83D20D0F800C04FF6777278
:100EC000DCF8083023EA0202CCF808200B683F2B3C
:100ED0001CDD5F2B20DD602B50D0B3F5005F6DD0A3
:100EE000702B40F0A080D1E901E3C968DCF808204C
:100EF00043EA0E0322F47F4243EA01211143CCF876
:100F00000810DCF8081041F077018AE01F2B29DC7B
:100F100063B3102B2AD086E0402B63D0502B40F0D7
:100F20008280D1F804E0C968DCF82030DCF82020A9
:100F300022F00102CCF82020DCF8182022F0F00288
:100F400042EA011123F00A0242EA0E02CCF818101C
:100F5000CCF82020DCF8081041F0570121F02001E6
:100F60005FE000BF202B01D0302B5CD1DCF80810F3
:100F700021F07001194341F0070152E0D1F804E07B
:100F8000C968DCF8203023F01003CCF82030DCF8FE
:100F90001830DCF8202023F4704322F0A00243EA4A
:100FA000013142EA0E12CCF81810CCF82020DCF8FF
:100FB000081041F0670121F0100132E0D1E901E3AE
:100FC000C968DCF8082043EA0E0322F47F4243EAB2
:100FD00001211143CCF80810DCF8081041F48041DD
:100FE0001FE000BFD1F804E0C968DCF82030DCF86D
:100FF000202022F00102CCF82020DCF8182022F07A
:10100000F00242EA011123F00A0242EA0E02CCF891
:101010001810CCF82020DCF8081041F0470121F02E
:101020003001CCF808100121002280F83D1080F832
:101030003C20104680BD00007047000010B50168DC
:1010400004460869800744BFC8685FEA807039D4E5
:101050000869400744BFC8685FEA40703ED4086929
:10106000000744BFC8685FEA007045D40869C0063D
:1010700044BFC8685FEAC0604AD40869C0071CBFA3
:10108000C8685FEAC07051D10869000644BFC868EB
:101090005FEA006052D40869400644BFC8685FEA4E
:1010A000406053D40869800646BFC8685FEA806024
:1010B00010BD6FF0200220460A61BDE81040FFF726
:1010C000DFBD00BF6FF00200086101202077886952
:1010D000800743D02046FFF7AFFF45E06FF00400E4
:1010E000086102202077886910F4407F40D02046B4
:1010F000FFF7A2FF42E000BF6FF008000861042084
:101100002077C86980073DD02046FFF795FF3FE074
:101110006FF01000086108202077C86910F4407F44
:101120003AD02046FFF788FF3CE000BF6FF0010097
:101130000861204600F03EF82168A5E76FF08000C6
:1011400008612046FFF79AFD2168A4E76FF0400090
:101150000861204600F07AF82168A3E7204600F0F5
:1011600025F8204600F024F82168002020776FE75A
:10117000204600F01BF8204600F01AF821680020F5
:1011800020776CE7204600F011F8204600F010F8B8
:1011900021680020207769E7204600F007F8204604
:1011A00000F006F821680020207766E7704700000D
:1011B00070470000B0B5006842F60041C4F201017A
:1011C000884218BFB0BD40F20005C2F20005296890
:1011D00040F2E004C2F2000405EB81012068C96816
:1011E000884203DA01302060B0BD00BF6168002290
:1011F00005EB810005EB4101C0690989FFF786F91C
:101200006068012806D058B905F1240005F10C01E9
:101210000DE000BF05F1280005F10E0107E000BF59
:10122000811E05EB810005EB41011C30083100688F
:1012300009880122FFF76AF960680130011F18BFB1
:101240000146616000202060B0BD000070470000D2
:10125000002804BF0120704710B5044690F83D00F7
:1012600028B9002084F83C00204600F05FF82420D4
:1012700084F83D002068D4E90212C36823F40053C7
:10128000C360036923F440531A430261D4E9042381
:101290001143C268194341F20C639A431143C16080
:1012A0004169A26921F44071114343F60002C4F27E
:1012B00001029042416103D0FFF7C8FA02E000BF8B
:1012C000FFF7D8FA6268192148439100B0FBF1F0AA
:1012D00048F21F51C5F2EB11A0FB01235A096FF030
:1012E000630302FB0300322303EB0010A0FB0101A8
:1012F000F02303EA5113206803EB0212C1F34311F8
:1013000011448160016921F490410161416921F03A
:101310002A014161C16841F40051C16000202021CF
:10132000206484F83D1084F83E1010BD80B586B06E
:1013300044F200410068C4F2000100228842049295
:1013400002D006B080BD00BF41F21800C4F2020016
:10135000426842F400324260426802F40032019274
:10136000019A026842F004020260006800F0040082
:10137000019001980C20029002200390059001F545
:10138000444002A9FEF7B8FF06B080BDFEE70000AA
:10139000FEE70000FEE70000704700007047000015
:1013A000FFF7C0B87047000040F22C10C2F20000F6
:1013B000FFF744BEFEE70000F0B581B040F6000440
:1013C000CFB2C4F201040E460546FA0920464FF496
:1013D0000071FFF79BF820464FF480710122FFF760
:1013E00095F820464FF480710022FFF78FF8C7F37D
:1013F000801220464FF40071FFF788F820464FF422
:1014000080710122FFF782F820464FF4807100229C
:10141000FFF77CF8C7F3401220464FF40071FFF746
:1014200075F820464FF480710122FFF76FF82046CF
:101430004FF480710022FFF769F8C7F300122046CD
:101440004FF40071FFF762F820464FF480710122DB
:10145000FFF75CF820464FF480710022FFF756F842
:10146000C7F3C00220464FF40071FFF74FF8204643
:101470004FF480710122FFF749F820464FF4807144
:101480000022FFF743F8C7F3800220464FF40071B3
:10149000FFF73CF820464FF480710122FFF736F841
:1014A00020464FF480710022FFF730F8C7F3400266
:1014B00020464FF40071FFF729F820464FF4807161
:1014C0000122FFF723F820464FF480710022FFF736
:1014D0001DF806F0010220464FF40071FFF716F8E0
:1014E00020464FF480710122FFF710F820464FF498
:1014F00080710022FFF70AF8EEB2F20920464FF49D
:101500000071FFF703F820464FF480710122FEF7C7
:10151000FDFF20464FF480710022FEF7F7FFC6F36F
:10152000801220464FF40071FEF7F0FF20464FF482
:1015300080710122FEF7EAFF20464FF480710022FD
:10154000FEF7E4FFC6F3401220464FF40071FEF7A9
:10155000DDFF20464FF480710122FEF7D7FF2046C1
:101560004FF480710022FEF7D1FFC6F3001220462F
:101570004FF40071FEF7CAFF20464FF4807101223C
:10158000FEF7C4FF20464FF480710022FEF7BEFF35
:10159000C6F3C00220464FF40071FEF7B7FF2046A5
:1015A0004FF480710122FEF7B1FF20464FF48071A5
:1015B0000022FEF7ABFFC6F3800220464FF4007115
:1015C000FEF7A4FF20464FF480710122FEF79EFF34
:1015D00020464FF480710022FEF798FFC6F34002C8
:1015E00020464FF40071FEF791FF20464FF48071C2
:1015F0000122FEF78BFF20464FF480710022FEF798
:1016000085FF05F0010220464FF40071FEF77EFFD2
:1016100020464FF480710122FEF778FF20464FF4F8
:1016200080710022FEF772FF04F5806420462021BD
:101630000122FEF76BFF20462021002201B0BDE809
:10164000F040FEF763BF000090B0FEF779FF002482
:101650000120CDE90B44CDE909440A9010200B90FC
:101660004FF4601002250F9006A8CDE907440695B7
:10167000CDE90D54FFF712F920B1EFF3108072B6E7
:10168000FEE700BF0F20CDE900054FF48060CDE9F3
:101690000304684602210294FEF7F8FF20B1EFF33D
:1016A000108072B6FEE700BF002741F218000997CC
:1016B000C4F20200016840F6000941F01001016027
:1016C0000168C4F2010901F010010091009901685C
:1016D000002241F02001016001684FF4787A01F0A6
:1016E000200100910099016841F004010160016846
:1016F00001F0040100910099016841F008010160C6
:1017000000684FF4787100F0080000900098484697
:10171000FEF7FCFE09F5806B5846602100224FF071
:101720006008FEF7F3FE4FF40050002406AE06906A
:10173000C1F2110409F500603146CDE90747FEF713
:10174000DBFD122006A991C148463146FEF7D4FDC3
:10175000CDF818A001254FF0020A48463146CDE9E0
:101760000757CDF824A0FEF7C7FD58463146CDE90E
:1017700006540897FEF7C0FD58463146CDE9068568
:10178000CDE9087AFEF7B8FD062000210022FEF719
:1017900041FF0620FEF72EFF072000210022FEF762
:1017A00039FF0720FEF726FF0A2000210022FEF75E
:1017B00031FF0A20FEF71EFF282000210022FEF73D
:1017C00029FF2820FEF716FF40F2E000A9F544416A
:1017D000C2F2000040F8081F4FF4E1310C22C0E9CA
:1017E0000117C0E90377C0E90527C761FFF730FD9E
:1017F00020B1EFF3108072B6FEE700BF40F22C106C
:1018000009F51051C2F2000044F620630997CDE9B2
:101810000777CDE9007740F2CF2280E88600C0E963
:101820000337C0E90577FFF76BFA28B1EFF31080B3
:1018300072B600BFFEE700BF4FF48050069040F242
:101840002C10C2F2000006A9FFF72CFB20B1EFF329
:10185000108072B6FEE700BF40F22C10C2F200000A
:101860006946FFF70FFA28B1EFF3108072B600BF98
:10187000FEE700BF484620210122FEF747FE48460A
:1018800040210122FEF742FE484680210122FEF758
:101890003DFE584640210122FEF738FE40F22C1052
:1018A000C2F20000FFF7C6FA40F20001C2F20001E6
:1018B0000A68C86B01EB8201096CFFF77DFD00BF70
:1018C000FEE7010200000000000000000102030426
:1018D00006070809000000000102030402030405D2
:1018E000060708090A0B0C0D0E0F1010101900083E
:1018F0000000002080000000280100089019000866
:1019000080000020F80600004401000800000000EC
:1019100001000000010000002000400080004000A5
:101920000000000002000000060000000008014066
:101930000008014000080140000C014000000000C8
:101940000100000002000000040000000800000088
:10195000C0000000F9000000A4000000B00000007A
:10196000980000009200000082000000F8000000D3
:1019700080000000900000007F000000FF000000D9
:1019800001000000100000000024F400000000002E
:04000005080000ED02
:00000001FF
